{
  "_format": "hh-sol-artifact-1",
  "contractName": "EscrowMarketplace",
  "sourceName": "contracts/EscrowMarketplace.sol",
  "abi": [
    {
      "anonymous": false,
      "inputs": [
        {
          "indexed": false,
          "internalType": "string",
          "name": "itemName",
          "type": "string"
        },
        {
          "indexed": false,
          "internalType": "uint256",
          "name": "refundAmount",
          "type": "uint256"
        },
        {
          "indexed": false,
          "internalType": "address",
          "name": "refundedParty",
          "type": "address"
        }
      ],
      "name": "DisputeResolved",
      "type": "event"
    },
    {
      "anonymous": false,
      "inputs": [
        {
          "indexed": false,
          "internalType": "string",
          "name": "itemName",
          "type": "string"
        },
        {
          "indexed": false,
          "internalType": "uint256",
          "name": "price",
          "type": "uint256"
        },
        {
          "indexed": false,
          "internalType": "address",
          "name": "buyer",
          "type": "address"
        }
      ],
      "name": "ItemBought",
      "type": "event"
    },
    {
      "anonymous": false,
      "inputs": [
        {
          "indexed": false,
          "internalType": "string",
          "name": "itemName",
          "type": "string"
        },
        {
          "indexed": false,
          "internalType": "address",
          "name": "buyer",
          "type": "address"
        }
      ],
      "name": "ItemConfirmed",
      "type": "event"
    },
    {
      "anonymous": false,
      "inputs": [
        {
          "indexed": false,
          "internalType": "string",
          "name": "itemName",
          "type": "string"
        },
        {
          "indexed": false,
          "internalType": "uint256",
          "name": "price",
          "type": "uint256"
        },
        {
          "indexed": false,
          "internalType": "address",
          "name": "seller",
          "type": "address"
        }
      ],
      "name": "ItemListed",
      "type": "event"
    },
    {
      "inputs": [
        {
          "internalType": "string",
          "name": "itemName",
          "type": "string"
        }
      ],
      "name": "buyItem",
      "outputs": [],
      "stateMutability": "payable",
      "type": "function"
    },
    {
      "inputs": [
        {
          "internalType": "string",
          "name": "itemName",
          "type": "string"
        }
      ],
      "name": "confirmReceipt",
      "outputs": [],
      "stateMutability": "nonpayable",
      "type": "function"
    },
    {
      "inputs": [
        {
          "internalType": "string",
          "name": "itemName",
          "type": "string"
        }
      ],
      "name": "getItemDetails",
      "outputs": [
        {
          "internalType": "address",
          "name": "seller",
          "type": "address"
        },
        {
          "internalType": "uint256",
          "name": "price",
          "type": "uint256"
        },
        {
          "internalType": "address",
          "name": "buyer",
          "type": "address"
        },
        {
          "internalType": "bool",
          "name": "isSold",
          "type": "bool"
        },
        {
          "internalType": "bool",
          "name": "isConfirmed",
          "type": "bool"
        }
      ],
      "stateMutability": "view",
      "type": "function"
    },
    {
      "inputs": [
        {
          "internalType": "string",
          "name": "itemName",
          "type": "string"
        },
        {
          "internalType": "uint256",
          "name": "price",
          "type": "uint256"
        }
      ],
      "name": "listItem",
      "outputs": [],
      "stateMutability": "nonpayable",
      "type": "function"
    },
    {
      "inputs": [
        {
          "internalType": "string",
          "name": "itemName",
          "type": "string"
        },
        {
          "internalType": "bool",
          "name": "refundBuyer",
          "type": "bool"
        }
      ],
      "name": "resolveDispute",
      "outputs": [],
      "stateMutability": "nonpayable",
      "type": "function"
    },
    {
      "inputs": [],
      "name": "withdrawFunds",
      "outputs": [],
      "stateMutability": "nonpayable",
      "type": "function"
    }
  ],
  "bytecode": "0x608060405234801561001057600080fd5b50611862806100206000396000f3fe6080604052600436106100555760003560e01c80630e95dae91461005a57806313f1992614610083578063245a037f1461009f57806324600fc3146100e05780638511c937146100f7578063ce42262614610120575b600080fd5b34801561006657600080fd5b50610081600480360381019061007c9190610ed3565b610149565b005b61009d60048036038101906100989190610ed3565b610397565b005b3480156100ab57600080fd5b506100c660048036038101906100c19190610ed3565b610588565b6040516100d79594939291906111b4565b60405180910390f35b3480156100ec57600080fd5b506100f56106d5565b005b34801561010357600080fd5b5061011e60048036038101906101199190610f68565b6107eb565b005b34801561012c57600080fd5b5061014760048036038101906101429190610f14565b610aac565b005b803373ffffffffffffffffffffffffffffffffffffffff16600182604051610171919061119d565b908152602001604051809103902060020160009054906101000a900473ffffffffffffffffffffffffffffffffffffffff1673ffffffffffffffffffffffffffffffffffffffff16146101f9576040517f08c379a00000000000000000000000000000000000000000000000000000000081526004016101f0906112f3565b60405180910390fd5b600060018360405161020b919061119d565b908152602001604051809103902090508060020160149054906101000a900460ff1661026c576040517f08c379a0000000000000000000000000000000000000000000000000000000008152600401610263906112d3565b60405180910390fd5b8060020160159054906101000a900460ff16156102be576040517f08c379a00000000000000000000000000000000000000000000000000000000081526004016102b5906112b3565b60405180910390fd5b60018160020160156101000a81548160ff0219169083151502179055508060010154600260008360000160009054906101000a900473ffffffffffffffffffffffffffffffffffffffff1673ffffffffffffffffffffffffffffffffffffffff1673ffffffffffffffffffffffffffffffffffffffff16815260200190815260200160002060008282546103529190611450565b925050819055507f6c0eebc032d61e52382f21bb97611211eb3106daae9acfd4ffc71eb8e9ab001f833360405161038a929190611207565b60405180910390a1505050565b60006001826040516103a9919061119d565b90815260200160405180910390209050600073ffffffffffffffffffffffffffffffffffffffff168160000160009054906101000a900473ffffffffffffffffffffffffffffffffffffffff1673ffffffffffffffffffffffffffffffffffffffff16141561044d576040517f08c379a0000000000000000000000000000000000000000000000000000000008152600401610444906113b3565b60405180910390fd5b8060020160149054906101000a900460ff161561049f576040517f08c379a000000000000000000000000000000000000000000000000000000000815260040161049690611333565b60405180910390fd5b806001015434146104e5576040517f08c379a00000000000000000000000000000000000000000000000000000000081526004016104dc90611373565b60405180910390fd5b338160020160006101000a81548173ffffffffffffffffffffffffffffffffffffffff021916908373ffffffffffffffffffffffffffffffffffffffff16021790555060018160020160146101000a81548160ff0219169083151502179055507f49827f74758495bb680208ce93b68091ca8f84b1e9b6c917a820e53e56ec59458282600101543360405161057c93929190611237565b60405180910390a15050565b6000806000806000806001876040516105a1919061119d565b90815260200160405180910390206040518060a00160405290816000820160009054906101000a900473ffffffffffffffffffffffffffffffffffffffff1673ffffffffffffffffffffffffffffffffffffffff1673ffffffffffffffffffffffffffffffffffffffff168152602001600182015481526020016002820160009054906101000a900473ffffffffffffffffffffffffffffffffffffffff1673ffffffffffffffffffffffffffffffffffffffff1673ffffffffffffffffffffffffffffffffffffffff1681526020016002820160149054906101000a900460ff161515151581526020016002820160159054906101000a900460ff161515151581525050905080600001518160200151826040015183606001518460800151955095509550955095505091939590929450565b6000600260003373ffffffffffffffffffffffffffffffffffffffff1673ffffffffffffffffffffffffffffffffffffffff1681526020019081526020016000205490506000811161075c576040517f08c379a000000000000000000000000000000000000000000000000000000000815260040161075390611353565b60405180910390fd5b6000600260003373ffffffffffffffffffffffffffffffffffffffff1673ffffffffffffffffffffffffffffffffffffffff168152602001908152602001600020819055503373ffffffffffffffffffffffffffffffffffffffff166108fc829081150290604051600060405180830381858888f193505050501580156107e7573d6000803e3d6000fd5b5050565b600073ffffffffffffffffffffffffffffffffffffffff16600183604051610813919061119d565b908152602001604051809103902060000160009054906101000a900473ffffffffffffffffffffffffffffffffffffffff1673ffffffffffffffffffffffffffffffffffffffff161461089b576040517f08c379a000000000000000000000000000000000000000000000000000000000815260040161089290611313565b60405180910390fd5b600081116108de576040517f08c379a00000000000000000000000000000000000000000000000000000000081526004016108d590611393565b60405180910390fd5b6040518060a001604052803373ffffffffffffffffffffffffffffffffffffffff168152602001828152602001600073ffffffffffffffffffffffffffffffffffffffff16815260200160001515815260200160001515815250600183604051610948919061119d565b908152602001604051809103902060008201518160000160006101000a81548173ffffffffffffffffffffffffffffffffffffffff021916908373ffffffffffffffffffffffffffffffffffffffff1602179055506020820151816001015560408201518160020160006101000a81548173ffffffffffffffffffffffffffffffffffffffff021916908373ffffffffffffffffffffffffffffffffffffffff16021790555060608201518160020160146101000a81548160ff02191690831515021790555060808201518160020160156101000a81548160ff021916908315150217905550905050600082908060018154018082558091505060019003906000526020600020016000909190919091509080519060200190610a6c929190610d9e565b507ff42638ed0318fcfc82e5540bd5f60962447ac62fe17cbf890372fb245ae5dd86828233604051610aa093929190611237565b60405180910390a15050565b6000600183604051610abe919061119d565b908152602001604051809103902090508060020160149054906101000a900460ff16610b1f576040517f08c379a0000000000000000000000000000000000000000000000000000000008152600401610b16906112d3565b60405180910390fd5b8060020160159054906101000a900460ff1615610b71576040517f08c379a0000000000000000000000000000000000000000000000000000000008152600401610b68906112b3565b60405180910390fd5b6000816001015490508215610c4f578160020160009054906101000a900473ffffffffffffffffffffffffffffffffffffffff1673ffffffffffffffffffffffffffffffffffffffff166108fc829081150290604051600060405180830381858888f19350505050158015610bea573d6000803e3d6000fd5b507fc96c0ac22f1ad911f00d5117c1c9c1a73934910d8420998d6cc463dd7238a2d384828460020160009054906101000a900473ffffffffffffffffffffffffffffffffffffffff16604051610c4293929190611275565b60405180910390a1610d1a565b8160000160009054906101000a900473ffffffffffffffffffffffffffffffffffffffff1673ffffffffffffffffffffffffffffffffffffffff166108fc829081150290604051600060405180830381858888f19350505050158015610cb9573d6000803e3d6000fd5b507fc96c0ac22f1ad911f00d5117c1c9c1a73934910d8420998d6cc463dd7238a2d384828460000160009054906101000a900473ffffffffffffffffffffffffffffffffffffffff16604051610d1193929190611275565b60405180910390a15b60008260020160146101000a81548160ff02191690831515021790555060008260020160006101000a81548173ffffffffffffffffffffffffffffffffffffffff021916908373ffffffffffffffffffffffffffffffffffffffff16021790555060008260020160156101000a81548160ff02191690831515021790555050505050565b828054610daa90611566565b90600052602060002090601f016020900481019282610dcc5760008555610e13565b82601f10610de557805160ff1916838001178555610e13565b82800160010185558215610e13579182015b82811115610e12578251825591602001919060010190610df7565b5b509050610e209190610e24565b5090565b5b80821115610e3d576000816000905550600101610e25565b5090565b6000610e54610e4f846113f8565b6113d3565b905082815260208101848484011115610e6c57600080fd5b610e77848285611524565b509392505050565b600081359050610e8e816117fe565b92915050565b600082601f830112610ea557600080fd5b8135610eb5848260208601610e41565b91505092915050565b600081359050610ecd81611815565b92915050565b600060208284031215610ee557600080fd5b600082013567ffffffffffffffff811115610eff57600080fd5b610f0b84828501610e94565b91505092915050565b60008060408385031215610f2757600080fd5b600083013567ffffffffffffffff811115610f4157600080fd5b610f4d85828601610e94565b9250506020610f5e85828601610e7f565b9150509250929050565b60008060408385031215610f7b57600080fd5b600083013567ffffffffffffffff811115610f9557600080fd5b610fa185828601610e94565b9250506020610fb285828601610ebe565b9150509250929050565b610fc5816114ee565b82525050565b610fd4816114a6565b82525050565b610fe3816114b8565b82525050565b6000610ff482611429565b610ffe8185611434565b935061100e818560208601611533565b61101781611656565b840191505092915050565b600061102d82611429565b6110378185611445565b9350611047818560208601611533565b80840191505092915050565b6000611060601a83611434565b915061106b82611667565b602082019050919050565b6000611083600e83611434565b915061108e82611690565b602082019050919050565b60006110a6602783611434565b91506110b1826116b9565b604082019050919050565b60006110c9601483611434565b91506110d482611708565b602082019050919050565b60006110ec601283611434565b91506110f782611731565b602082019050919050565b600061110f601583611434565b915061111a8261175a565b602082019050919050565b6000611132601583611434565b915061113d82611783565b602082019050919050565b6000611155602083611434565b9150611160826117ac565b602082019050919050565b6000611178601083611434565b9150611183826117d5565b602082019050919050565b611197816114e4565b82525050565b60006111a98284611022565b915081905092915050565b600060a0820190506111c96000830188610fcb565b6111d6602083018761118e565b6111e36040830186610fcb565b6111f06060830185610fda565b6111fd6080830184610fda565b9695505050505050565b600060408201905081810360008301526112218185610fe9565b90506112306020830184610fcb565b9392505050565b600060608201905081810360008301526112518186610fe9565b9050611260602083018561118e565b61126d6040830184610fcb565b949350505050565b6000606082019050818103600083015261128f8186610fe9565b905061129e602083018561118e565b6112ab6040830184610fbc565b949350505050565b600060208201905081810360008301526112cc81611053565b9050919050565b600060208201905081810360008301526112ec81611076565b9050919050565b6000602082019050818103600083015261130c81611099565b9050919050565b6000602082019050818103600083015261132c816110bc565b9050919050565b6000602082019050818103600083015261134c816110df565b9050919050565b6000602082019050818103600083015261136c81611102565b9050919050565b6000602082019050818103600083015261138c81611125565b9050919050565b600060208201905081810360008301526113ac81611148565b9050919050565b600060208201905081810360008301526113cc8161116b565b9050919050565b60006113dd6113ee565b90506113e98282611598565b919050565b6000604051905090565b600067ffffffffffffffff82111561141357611412611627565b5b61141c82611656565b9050602081019050919050565b600081519050919050565b600082825260208201905092915050565b600081905092915050565b600061145b826114e4565b9150611466836114e4565b9250827fffffffffffffffffffffffffffffffffffffffffffffffffffffffffffffffff0382111561149b5761149a6115c9565b5b828201905092915050565b60006114b1826114c4565b9050919050565b60008115159050919050565b600073ffffffffffffffffffffffffffffffffffffffff82169050919050565b6000819050919050565b60006114f982611500565b9050919050565b600061150b82611512565b9050919050565b600061151d826114c4565b9050919050565b82818337600083830152505050565b60005b83811015611551578082015181840152602081019050611536565b83811115611560576000848401525b50505050565b6000600282049050600182168061157e57607f821691505b60208210811415611592576115916115f8565b5b50919050565b6115a182611656565b810181811067ffffffffffffffff821117156115c0576115bf611627565b5b80604052505050565b7f4e487b7100000000000000000000000000000000000000000000000000000000600052601160045260246000fd5b7f4e487b7100000000000000000000000000000000000000000000000000000000600052602260045260246000fd5b7f4e487b7100000000000000000000000000000000000000000000000000000000600052604160045260246000fd5b6000601f19601f8301169050919050565b7f5265636569707420616c726561647920636f6e6669726d65642e000000000000600082015250565b7f4974656d206e6f7420736f6c642e000000000000000000000000000000000000600082015250565b7f4f6e6c79207468652062757965722063616e20706572666f726d20746869732060008201527f616374696f6e2e00000000000000000000000000000000000000000000000000602082015250565b7f4974656d20616c7265616479206c69737465642e000000000000000000000000600082015250565b7f4974656d20616c726561647920736f6c642e0000000000000000000000000000600082015250565b7f4e6f2066756e647320746f2077697468647261772e0000000000000000000000600082015250565b7f496e636f72726563742076616c75652073656e742e0000000000000000000000600082015250565b7f5072696365206d7573742062652067726561746572207468616e207a65726f2e600082015250565b7f4974656d206e6f74206c69737465642e00000000000000000000000000000000600082015250565b611807816114b8565b811461181257600080fd5b50565b61181e816114e4565b811461182957600080fd5b5056fea26469706673582212201056addec7941167cb655a85d86ee43405f75af52f9eeec6205686b4ed0ee18564736f6c63430008040033",
  "linkReferences": {},
  "deployedLinkReferences": {}
}